:04000000803114280F
:10000800803120007F08F4002100111C10282000F6
:10001800111C10288031382074082000FF000900C6
:1000280080311628F001F101F201F301200080313E
:100038005D28043022008C003B3021008C001330F6
:1000480023008C0024008C0122008E013F30210007
:100058008E000F3023008E0024008E01210095179A
:1000680022009D019E0108002000111078089700C9
:10007800770896000130F0070030F13D003071023A
:10008800023003197002031C080080316820F00157
:10009800F1010800200098019901970196011708BD
:1000A800F8001608F70011102100111480316C2097
:1000B8000800F501F60180311D20803180314E2085
:1000C800803120000C156728043020008C060800B9
:0600D800200018140800CE
:020000040001F9
:04000E00E4FFFFDF2D
:00000001FF
